{
  "contractName": "FlightSuretyData",
  "abi": [
    {
      "inputs": [
        {
          "internalType": "address",
          "name": "firstAirline",
          "type": "address"
        },
        {
          "internalType": "string",
          "name": "firstAirlineID",
          "type": "string"
        }
      ],
      "payable": false,
      "stateMutability": "nonpayable",
      "type": "constructor"
    },
    {
      "payable": true,
      "stateMutability": "payable",
      "type": "fallback"
    },
    {
      "constant": true,
      "inputs": [
        {
          "internalType": "address",
          "name": "",
          "type": "address"
        }
      ],
      "name": "authorizedAppContracts",
      "outputs": [
        {
          "internalType": "bool",
          "name": "",
          "type": "bool"
        }
      ],
      "payable": false,
      "stateMutability": "view",
      "type": "function"
    },
    {
      "constant": true,
      "inputs": [],
      "name": "isOperational",
      "outputs": [
        {
          "internalType": "bool",
          "name": "",
          "type": "bool"
        }
      ],
      "payable": false,
      "stateMutability": "view",
      "type": "function"
    },
    {
      "constant": false,
      "inputs": [
        {
          "internalType": "bool",
          "name": "mode",
          "type": "bool"
        }
      ],
      "name": "setOperatingStatus",
      "outputs": [],
      "payable": false,
      "stateMutability": "nonpayable",
      "type": "function"
    },
    {
      "constant": false,
      "inputs": [
        {
          "internalType": "address",
          "name": "_appContract",
          "type": "address"
        }
      ],
      "name": "authorizeAppContract",
      "outputs": [],
      "payable": false,
      "stateMutability": "nonpayable",
      "type": "function"
    },
    {
      "constant": false,
      "inputs": [
        {
          "internalType": "address",
          "name": "_appContract",
          "type": "address"
        }
      ],
      "name": "deauthorizeAppContract",
      "outputs": [],
      "payable": false,
      "stateMutability": "nonpayable",
      "type": "function"
    },
    {
      "constant": false,
      "inputs": [
        {
          "internalType": "address",
          "name": "newAirline",
          "type": "address"
        },
        {
          "internalType": "string",
          "name": "newAirlineID",
          "type": "string"
        }
      ],
      "name": "addAirline",
      "outputs": [],
      "payable": true,
      "stateMutability": "payable",
      "type": "function"
    },
    {
      "constant": true,
      "inputs": [
        {
          "internalType": "address",
          "name": "_appContract",
          "type": "address"
        }
      ],
      "name": "isAppContractAuthorized",
      "outputs": [
        {
          "internalType": "bool",
          "name": "",
          "type": "bool"
        }
      ],
      "payable": false,
      "stateMutability": "view",
      "type": "function"
    },
    {
      "constant": true,
      "inputs": [
        {
          "internalType": "address",
          "name": "_airline",
          "type": "address"
        }
      ],
      "name": "isAirlineRegistered",
      "outputs": [
        {
          "internalType": "bool",
          "name": "",
          "type": "bool"
        }
      ],
      "payable": false,
      "stateMutability": "view",
      "type": "function"
    },
    {
      "constant": false,
      "inputs": [
        {
          "internalType": "address",
          "name": "newLine",
          "type": "address"
        },
        {
          "internalType": "string",
          "name": "newLineID",
          "type": "string"
        }
      ],
      "name": "registerAirline",
      "outputs": [],
      "payable": false,
      "stateMutability": "nonpayable",
      "type": "function"
    },
    {
      "constant": false,
      "inputs": [
        {
          "internalType": "address",
          "name": "newAirline",
          "type": "address"
        }
      ],
      "name": "vote",
      "outputs": [],
      "payable": false,
      "stateMutability": "nonpayable",
      "type": "function"
    },
    {
      "constant": false,
      "inputs": [
        {
          "internalType": "address",
          "name": "airline",
          "type": "address"
        },
        {
          "internalType": "uint256",
          "name": "value",
          "type": "uint256"
        }
      ],
      "name": "fundAirline",
      "outputs": [],
      "payable": false,
      "stateMutability": "nonpayable",
      "type": "function"
    },
    {
      "constant": false,
      "inputs": [
        {
          "internalType": "address",
          "name": "airline",
          "type": "address"
        },
        {
          "internalType": "string",
          "name": "flight",
          "type": "string"
        },
        {
          "internalType": "uint256",
          "name": "timestamp",
          "type": "uint256"
        },
        {
          "internalType": "address",
          "name": "insuree",
          "type": "address"
        }
      ],
      "name": "buy",
      "outputs": [],
      "payable": true,
      "stateMutability": "payable",
      "type": "function"
    },
    {
      "constant": false,
      "inputs": [
        {
          "internalType": "address",
          "name": "airline",
          "type": "address"
        },
        {
          "internalType": "string",
          "name": "flight",
          "type": "string"
        },
        {
          "internalType": "uint256",
          "name": "timestamp",
          "type": "uint256"
        }
      ],
      "name": "creditInsurees",
      "outputs": [],
      "payable": false,
      "stateMutability": "nonpayable",
      "type": "function"
    },
    {
      "constant": false,
      "inputs": [
        {
          "internalType": "address payable",
          "name": "insuree",
          "type": "address"
        }
      ],
      "name": "pay",
      "outputs": [],
      "payable": true,
      "stateMutability": "payable",
      "type": "function"
    },
    {
      "constant": false,
      "inputs": [],
      "name": "dataFund",
      "outputs": [],
      "payable": true,
      "stateMutability": "payable",
      "type": "function"
    },
    {
      "constant": true,
      "inputs": [
        {
          "internalType": "address",
          "name": "airlineAddress",
          "type": "address"
        }
      ],
      "name": "getAirline",
      "outputs": [
        {
          "internalType": "string",
          "name": "id",
          "type": "string"
        },
        {
          "internalType": "bool",
          "name": "isRegistered",
          "type": "bool"
        },
        {
          "internalType": "uint256",
          "name": "hasFund",
          "type": "uint256"
        },
        {
          "internalType": "uint256",
          "name": "voteCount",
          "type": "uint256"
        }
      ],
      "payable": false,
      "stateMutability": "view",
      "type": "function"
    },
    {
      "constant": true,
      "inputs": [
        {
          "internalType": "address",
          "name": "airline",
          "type": "address"
        }
      ],
      "name": "isAirlineNewAdded",
      "outputs": [
        {
          "internalType": "bool",
          "name": "",
          "type": "bool"
        }
      ],
      "payable": false,
      "stateMutability": "view",
      "type": "function"
    },
    {
      "constant": true,
      "inputs": [
        {
          "internalType": "address",
          "name": "airlineAddress",
          "type": "address"
        }
      ],
      "name": "getAirlineVoteCount",
      "outputs": [
        {
          "internalType": "uint256",
          "name": "",
          "type": "uint256"
        }
      ],
      "payable": false,
      "stateMutability": "view",
      "type": "function"
    },
    {
      "constant": true,
      "inputs": [],
      "name": "getAirlineCount",
      "outputs": [
        {
          "internalType": "uint256",
          "name": "",
          "type": "uint256"
        }
      ],
      "payable": false,
      "stateMutability": "view",
      "type": "function"
    },
    {
      "constant": true,
      "inputs": [],
      "name": "gethasFundAirlineCount",
      "outputs": [
        {
          "internalType": "uint256",
          "name": "",
          "type": "uint256"
        }
      ],
      "payable": false,
      "stateMutability": "view",
      "type": "function"
    },
    {
      "constant": true,
      "inputs": [
        {
          "internalType": "address",
          "name": "insuree",
          "type": "address"
        }
      ],
      "name": "getInsureesBalance",
      "outputs": [
        {
          "internalType": "uint256",
          "name": "",
          "type": "uint256"
        }
      ],
      "payable": false,
      "stateMutability": "view",
      "type": "function"
    }
  ],
  "bytecode": "0x60806040526001600060146101000a81548160ff0219169083151502179055506000600755600060085560006009556000600a553480156200004057600080fd5b506040516200396538038062003965833981810160405260408110156200006657600080fd5b8101908080519060200190929190805160405193929190846401000000008211156200009157600080fd5b83820191506020820185811115620000a857600080fd5b8251866001820283011164010000000082111715620000c657600080fd5b8083526020830192505050908051906020019080838360005b83811015620000fc578082015181840152602081019050620000df565b50505050905090810190601f1680156200012a5780820380516001836020036101000a031916815260200191505b50604052505050336000806101000a81548173ffffffffffffffffffffffffffffffffffffffff021916908373ffffffffffffffffffffffffffffffffffffffff1602179055506040518060c001604052808373ffffffffffffffffffffffffffffffffffffffff16815260200182815260200160011515815260200160011515815260200160008152602001612710815250600360008473ffffffffffffffffffffffffffffffffffffffff1673ffffffffffffffffffffffffffffffffffffffff16815260200190815260200160002060008201518160000160006101000a81548173ffffffffffffffffffffffffffffffffffffffff021916908373ffffffffffffffffffffffffffffffffffffffff160217905550602082015181600101908051906020019062000261929190620002e5565b5060408201518160020160006101000a81548160ff02191690831515021790555060608201518160020160016101000a81548160ff0219169083151502179055506080820151816003015560a08201518160040155905050600760008154809291906001019190505550600960008154809291906001019190505550505062000394565b828054600181600116156101000203166002900490600052602060002090601f016020900481019282601f106200032857805160ff191683800117855562000359565b8280016001018555821562000359579182015b82811115620003585782518255916020019190600101906200033b565b5b5090506200036891906200036c565b5090565b6200039191905b808211156200038d57600081600090555060010162000373565b5090565b90565b6135c180620003a46000396000f3fe60806040526004361061012a5760003560e01c80637754622e116100ab578063db75ef891161006f578063db75ef8914610692578063e1de0489146106e3578063ee38a749146107c6578063f1a81e721461086c578063fe2b06b3146108c7578063ffd95d50146109305761012a565b80637754622e146104ce5780637f9e18081461051f578063b967517d1461054a578063c8820a70146105b3578063cd905dff146106635761012a565b80633627e96e116100f25780633627e96e1461031c578063415c6165146103855780634ec1034b146103b05780634f253f6e146103ba5780636dd7d8ea1461047d5761012a565b8063010c5c97146101345780630c11dedd1461019d578063110466ed146101e157806329df66cc1461021e5780632eba26dc146102b7575b610132610995565b005b34801561014057600080fd5b506101836004803603602081101561015757600080fd5b81019080803573ffffffffffffffffffffffffffffffffffffffff1690602001909291905050506109de565b604051808215151515815260200191505060405180910390f35b6101df600480360360208110156101b357600080fd5b81019080803573ffffffffffffffffffffffffffffffffffffffff169060200190929190505050610a37565b005b3480156101ed57600080fd5b5061021c6004803603602081101561020457600080fd5b81019080803515159060200190929190505050610cce565b005b6102b56004803603604081101561023457600080fd5b81019080803573ffffffffffffffffffffffffffffffffffffffff1690602001909291908035906020019064010000000081111561027157600080fd5b82018360208201111561028357600080fd5b803590602001918460018302840111640100000000831117156102a557600080fd5b9091929391929390505050610dad565b005b3480156102c357600080fd5b50610306600480360360208110156102da57600080fd5b81019080803573ffffffffffffffffffffffffffffffffffffffff169060200190929190505050610fce565b6040518082815260200191505060405180910390f35b34801561032857600080fd5b5061036b6004803603602081101561033f57600080fd5b81019080803573ffffffffffffffffffffffffffffffffffffffff16906020019092919050505061107b565b604051808215151515815260200191505060405180910390f35b34801561039157600080fd5b5061039a6111fe565b6040518082815260200191505060405180910390f35b6103b8610995565b005b61047b600480360360808110156103d057600080fd5b81019080803573ffffffffffffffffffffffffffffffffffffffff1690602001909291908035906020019064010000000081111561040d57600080fd5b82018360208201111561041f57600080fd5b8035906020019184600183028401116401000000008311171561044157600080fd5b909192939192939080359060200190929190803573ffffffffffffffffffffffffffffffffffffffff169060200190929190505050611332565b005b34801561048957600080fd5b506104cc600480360360208110156104a057600080fd5b81019080803573ffffffffffffffffffffffffffffffffffffffff16906020019092919050505061166f565b005b3480156104da57600080fd5b5061051d600480360360208110156104f157600080fd5b81019080803573ffffffffffffffffffffffffffffffffffffffff1690602001909291905050506119fa565b005b34801561052b57600080fd5b50610534611b7c565b6040518082815260200191505060405180910390f35b34801561055657600080fd5b506105996004803603602081101561056d57600080fd5b81019080803573ffffffffffffffffffffffffffffffffffffffff169060200190929190505050611cb0565b604051808215151515815260200191505060405180910390f35b3480156105bf57600080fd5b50610661600480360360608110156105d657600080fd5b81019080803573ffffffffffffffffffffffffffffffffffffffff1690602001909291908035906020019064010000000081111561061357600080fd5b82018360208201111561062557600080fd5b8035906020019184600183028401116401000000008311171561064757600080fd5b909192939192939080359060200190929190505050611cd0565b005b34801561066f57600080fd5b50610678611fc8565b604051808215151515815260200191505060405180910390f35b34801561069e57600080fd5b506106e1600480360360208110156106b557600080fd5b81019080803573ffffffffffffffffffffffffffffffffffffffff169060200190929190505050611fde565b005b3480156106ef57600080fd5b506107326004803603602081101561070657600080fd5b81019080803573ffffffffffffffffffffffffffffffffffffffff1690602001909291905050506120f2565b604051808060200185151515158152602001848152602001838152602001828103825286818151815260200191508051906020019080838360005b8381101561078857808201518184015260208101905061076d565b50505050905090810190601f1680156107b55780820380516001836020036101000a031916815260200191505b509550505050505060405180910390f35b3480156107d257600080fd5b5061086a600480360360408110156107e957600080fd5b81019080803573ffffffffffffffffffffffffffffffffffffffff1690602001909291908035906020019064010000000081111561082657600080fd5b82018360208201111561083857600080fd5b8035906020019184600183028401116401000000008311171561085a57600080fd5b90919293919293905050506123e0565b005b34801561087857600080fd5b506108c56004803603604081101561088f57600080fd5b81019080803573ffffffffffffffffffffffffffffffffffffffff16906020019092919080359060200190929190505050612919565b005b3480156108d357600080fd5b50610916600480360360208110156108ea57600080fd5b81019080803573ffffffffffffffffffffffffffffffffffffffff169060200190929190505050612cf3565b604051808215151515815260200191505060405180910390f35b34801561093c57600080fd5b5061097f6004803603602081101561095357600080fd5b81019080803573ffffffffffffffffffffffffffffffffffffffff169060200190929190505050612d49565b6040518082815260200191505060405180910390f35b3073ffffffffffffffffffffffffffffffffffffffff166108fc349081150290604051600060405180830381858888f193505050501580156109db573d6000803e3d6000fd5b50565b6000600360008373ffffffffffffffffffffffffffffffffffffffff1673ffffffffffffffffffffffffffffffffffffffff16815260200190815260200160002060020160019054906101000a900460ff169050919050565b600060149054906101000a900460ff16610a9c576040517f08c379a00000000000000000000000000000000000000000000000000000000081526004018080602001828103825260258152602001806135366025913960400191505060405180910390fd5b60011515600260003373ffffffffffffffffffffffffffffffffffffffff1673ffffffffffffffffffffffffffffffffffffffff16815260200190815260200160002060009054906101000a900460ff16151514610b62576040517f08c379a000000000000000000000000000000000000000000000000000000000815260040180806020018281038252601d8152602001807f417070436f6e7472616374206973206e6f7420617574686f72697a656400000081525060200191505060405180910390fd5b6000600c60008373ffffffffffffffffffffffffffffffffffffffff1673ffffffffffffffffffffffffffffffffffffffff1681526020019081526020016000205411610bfa576040517f08c379a00000000000000000000000000000000000000000000000000000000081526004018080602001828103825260218152602001806135156021913960400191505060405180910390fd5b6000600c60008373ffffffffffffffffffffffffffffffffffffffff1673ffffffffffffffffffffffffffffffffffffffff1681526020019081526020016000205490506000600c60008473ffffffffffffffffffffffffffffffffffffffff1673ffffffffffffffffffffffffffffffffffffffff168152602001908152602001600020819055508173ffffffffffffffffffffffffffffffffffffffff166108fc829081150290604051600060405180830381858888f19350505050158015610cc9573d6000803e3d6000fd5b505050565b6000809054906101000a900473ffffffffffffffffffffffffffffffffffffffff1673ffffffffffffffffffffffffffffffffffffffff163373ffffffffffffffffffffffffffffffffffffffff1614610d90576040517f08c379a000000000000000000000000000000000000000000000000000000000815260040180806020018281038252601c8152602001807f43616c6c6572206973206e6f7420636f6e7472616374206f776e65720000000081525060200191505060405180910390fd5b80600060146101000a81548160ff02191690831515021790555050565b600060149054906101000a900460ff16610e12576040517f08c379a00000000000000000000000000000000000000000000000000000000081526004018080602001828103825260258152602001806135366025913960400191505060405180910390fd5b60011515600260003373ffffffffffffffffffffffffffffffffffffffff1673ffffffffffffffffffffffffffffffffffffffff16815260200190815260200160002060009054906101000a900460ff16151514610ed8576040517f08c379a000000000000000000000000000000000000000000000000000000000815260040180806020018281038252601d8152602001807f417070436f6e7472616374206973206e6f7420617574686f72697a656400000081525060200191505060405180910390fd5b678ac7230489e80000600360003373ffffffffffffffffffffffffffffffffffffffff1673ffffffffffffffffffffffffffffffffffffffff168152602001908152602001600020600301541015610f7b576040517f08c379a00000000000000000000000000000000000000000000000000000000081526004018080602001828103825260278152602001806134ee6027913960400191505060405180910390fd5b610fc98383838080601f016020809104026020016040519081016040528093929190818152602001838380828437600081840152601f19601f82011690508083019250505050505050613018565b505050565b60008060149054906101000a900460ff16611034576040517f08c379a00000000000000000000000000000000000000000000000000000000081526004018080602001828103825260258152602001806135366025913960400191505060405180910390fd5b600c60008373ffffffffffffffffffffffffffffffffffffffff1673ffffffffffffffffffffffffffffffffffffffff168152602001908152602001600020549050919050565b60008060149054906101000a900460ff166110e1576040517f08c379a00000000000000000000000000000000000000000000000000000000081526004018080602001828103825260258152602001806135366025913960400191505060405180910390fd5b60011515600260003373ffffffffffffffffffffffffffffffffffffffff1673ffffffffffffffffffffffffffffffffffffffff16815260200190815260200160002060009054906101000a900460ff161515146111a7576040517f08c379a000000000000000000000000000000000000000000000000000000000815260040180806020018281038252601d8152602001807f417070436f6e7472616374206973206e6f7420617574686f72697a656400000081525060200191505060405180910390fd5b600360008373ffffffffffffffffffffffffffffffffffffffff1673ffffffffffffffffffffffffffffffffffffffff16815260200190815260200160002060020160009054906101000a900460ff169050919050565b60008060149054906101000a900460ff16611264576040517f08c379a00000000000000000000000000000000000000000000000000000000081526004018080602001828103825260258152602001806135366025913960400191505060405180910390fd5b60011515600260003373ffffffffffffffffffffffffffffffffffffffff1673ffffffffffffffffffffffffffffffffffffffff16815260200190815260200160002060009054906101000a900460ff1615151461132a576040517f08c379a000000000000000000000000000000000000000000000000000000000815260040180806020018281038252601d8152602001807f417070436f6e7472616374206973206e6f7420617574686f72697a656400000081525060200191505060405180910390fd5b600a54905090565b600060149054906101000a900460ff16611397576040517f08c379a00000000000000000000000000000000000000000000000000000000081526004018080602001828103825260258152602001806135366025913960400191505060405180910390fd5b60011515600260003373ffffffffffffffffffffffffffffffffffffffff1673ffffffffffffffffffffffffffffffffffffffff16815260200190815260200160002060009054906101000a900460ff1615151461145d576040517f08c379a000000000000000000000000000000000000000000000000000000000815260040180806020018281038252601d8152602001807f417070436f6e7472616374206973206e6f7420617574686f72697a656400000081525060200191505060405180910390fd5b670de0b6b3a764000034600c60008473ffffffffffffffffffffffffffffffffffffffff1673ffffffffffffffffffffffffffffffffffffffff1681526020019081526020016000206000828254019250508190551115611509576040517f08c379a000000000000000000000000000000000000000000000000000000000815260040180806020018281038252602c8152602001806134c2602c913960400191505060405180910390fd5b3073ffffffffffffffffffffffffffffffffffffffff166108fc349081150290604051600060405180830381858888f1935050505015801561154f573d6000803e3d6000fd5b5060006115a18686868080601f016020809104026020016040519081016040528093929190818152602001838380828437600081840152601f19601f8201169050808301925050505050505085613268565b9050600b60008281526020019081526020016000208290806001815401808255809150509060018203906000526020600020016000909192909190916101000a81548173ffffffffffffffffffffffffffffffffffffffff021916908373ffffffffffffffffffffffffffffffffffffffff1602179055505034600c60008473ffffffffffffffffffffffffffffffffffffffff1673ffffffffffffffffffffffffffffffffffffffff16815260200190815260200160002060008282540192505081905550505050505050565b600060149054906101000a900460ff166116d4576040517f08c379a00000000000000000000000000000000000000000000000000000000081526004018080602001828103825260258152602001806135366025913960400191505060405180910390fd5b60011515600260003373ffffffffffffffffffffffffffffffffffffffff1673ffffffffffffffffffffffffffffffffffffffff16815260200190815260200160002060009054906101000a900460ff1615151461179a576040517f08c379a000000000000000000000000000000000000000000000000000000000815260040180806020018281038252601d8152602001807f417070436f6e7472616374206973206e6f7420617574686f72697a656400000081525060200191505060405180910390fd5b678ac7230489e80000600360003373ffffffffffffffffffffffffffffffffffffffff1673ffffffffffffffffffffffffffffffffffffffff16815260200190815260200160002060030154101561183d576040517f08c379a00000000000000000000000000000000000000000000000000000000081526004018080602001828103825260278152602001806134ee6027913960400191505060405180910390fd5b600360008273ffffffffffffffffffffffffffffffffffffffff1673ffffffffffffffffffffffffffffffffffffffff16815260200190815260200160002060020160009054906101000a900460ff166118e2576040517f08c379a000000000000000000000000000000000000000000000000000000000815260040180806020018281038252603281526020018061355b6032913960400191505060405180910390fd5b600360008273ffffffffffffffffffffffffffffffffffffffff1673ffffffffffffffffffffffffffffffffffffffff16815260200190815260200160002060020160019054906101000a900460ff16156119a5576040517f08c379a000000000000000000000000000000000000000000000000000000000815260040180806020018281038252601d8152602001807f4169726c696e6520697320616c7265616479207265676973746572656400000081525060200191505060405180910390fd5b600360008273ffffffffffffffffffffffffffffffffffffffff1673ffffffffffffffffffffffffffffffffffffffff1681526020019081526020016000206004016000815480929190600101919050555050565b600060149054906101000a900460ff16611a5f576040517f08c379a00000000000000000000000000000000000000000000000000000000081526004018080602001828103825260258152602001806135366025913960400191505060405180910390fd5b6000809054906101000a900473ffffffffffffffffffffffffffffffffffffffff1673ffffffffffffffffffffffffffffffffffffffff163373ffffffffffffffffffffffffffffffffffffffff1614611b21576040517f08c379a000000000000000000000000000000000000000000000000000000000815260040180806020018281038252601c8152602001807f43616c6c6572206973206e6f7420636f6e7472616374206f776e65720000000081525060200191505060405180910390fd5b6001600260008373ffffffffffffffffffffffffffffffffffffffff1673ffffffffffffffffffffffffffffffffffffffff16815260200190815260200160002060006101000a81548160ff02191690831515021790555050565b60008060149054906101000a900460ff16611be2576040517f08c379a00000000000000000000000000000000000000000000000000000000081526004018080602001828103825260258152602001806135366025913960400191505060405180910390fd5b60011515600260003373ffffffffffffffffffffffffffffffffffffffff1673ffffffffffffffffffffffffffffffffffffffff16815260200190815260200160002060009054906101000a900460ff16151514611ca8576040517f08c379a000000000000000000000000000000000000000000000000000000000815260040180806020018281038252601d8152602001807f417070436f6e7472616374206973206e6f7420617574686f72697a656400000081525060200191505060405180910390fd5b600754905090565b60026020528060005260406000206000915054906101000a900460ff1681565b600060149054906101000a900460ff16611d35576040517f08c379a00000000000000000000000000000000000000000000000000000000081526004018080602001828103825260258152602001806135366025913960400191505060405180910390fd5b60011515600260003373ffffffffffffffffffffffffffffffffffffffff1673ffffffffffffffffffffffffffffffffffffffff16815260200190815260200160002060009054906101000a900460ff16151514611dfb576040517f08c379a000000000000000000000000000000000000000000000000000000000815260040180806020018281038252601d8152602001807f417070436f6e7472616374206973206e6f7420617574686f72697a656400000081525060200191505060405180910390fd5b6000611e4c8585858080601f016020809104026020016040519081016040528093929190818152602001838380828437600081840152601f19601f8201169050808301925050505050505084613268565b905060008090505b600b600083815260200190815260200160002080549050811015611fa1576000600c6000600b60008681526020019081526020016000208481548110611e9657fe5b9060005260206000200160009054906101000a900473ffffffffffffffffffffffffffffffffffffffff1673ffffffffffffffffffffffffffffffffffffffff1673ffffffffffffffffffffffffffffffffffffffff168152602001908152602001600020549050600060028202905080600c6000600b60008881526020019081526020016000208681548110611f2957fe5b9060005260206000200160009054906101000a900473ffffffffffffffffffffffffffffffffffffffff1673ffffffffffffffffffffffffffffffffffffffff1673ffffffffffffffffffffffffffffffffffffffff1681526020019081526020016000208190555050508080600101915050611e54565b50600b60008281526020019081526020016000206000611fc19190613324565b5050505050565b60008060149054906101000a900460ff16905090565b6000809054906101000a900473ffffffffffffffffffffffffffffffffffffffff1673ffffffffffffffffffffffffffffffffffffffff163373ffffffffffffffffffffffffffffffffffffffff16146120a0576040517f08c379a000000000000000000000000000000000000000000000000000000000815260040180806020018281038252601c8152602001807f43616c6c6572206973206e6f7420636f6e7472616374206f776e65720000000081525060200191505060405180910390fd5b600260008273ffffffffffffffffffffffffffffffffffffffff1673ffffffffffffffffffffffffffffffffffffffff16815260200190815260200160002060006101000a81549060ff021916905550565b606060008060008060149054906101000a900460ff1661215d576040517f08c379a00000000000000000000000000000000000000000000000000000000081526004018080602001828103825260258152602001806135366025913960400191505060405180910390fd5b60011515600260003373ffffffffffffffffffffffffffffffffffffffff1673ffffffffffffffffffffffffffffffffffffffff16815260200190815260200160002060009054906101000a900460ff16151514612223576040517f08c379a000000000000000000000000000000000000000000000000000000000815260040180806020018281038252601d8152602001807f417070436f6e7472616374206973206e6f7420617574686f72697a656400000081525060200191505060405180910390fd5b61222b613345565b600360008773ffffffffffffffffffffffffffffffffffffffff1673ffffffffffffffffffffffffffffffffffffffff1681526020019081526020016000206040518060c00160405290816000820160009054906101000a900473ffffffffffffffffffffffffffffffffffffffff1673ffffffffffffffffffffffffffffffffffffffff1673ffffffffffffffffffffffffffffffffffffffff168152602001600182018054600181600116156101000203166002900480601f0160208091040260200160405190810160405280929190818152602001828054600181600116156101000203166002900480156123645780601f1061233957610100808354040283529160200191612364565b820191906000526020600020905b81548152906001019060200180831161234757829003601f168201915b505050505081526020016002820160009054906101000a900460ff161515151581526020016002820160019054906101000a900460ff161515151581526020016003820154815260200160048201548152505090508060200151816060015182608001518360a001518393509450945094509450509193509193565b600060149054906101000a900460ff16612445576040517f08c379a00000000000000000000000000000000000000000000000000000000081526004018080602001828103825260258152602001806135366025913960400191505060405180910390fd5b60011515600260003373ffffffffffffffffffffffffffffffffffffffff1673ffffffffffffffffffffffffffffffffffffffff16815260200190815260200160002060009054906101000a900460ff1615151461250b576040517f08c379a000000000000000000000000000000000000000000000000000000000815260040180806020018281038252601d8152602001807f417070436f6e7472616374206973206e6f7420617574686f72697a656400000081525060200191505060405180910390fd5b678ac7230489e80000600360003373ffffffffffffffffffffffffffffffffffffffff1673ffffffffffffffffffffffffffffffffffffffff1681526020019081526020016000206003015410156125ae576040517f08c379a00000000000000000000000000000000000000000000000000000000081526004018080602001828103825260278152602001806134ee6027913960400191505060405180910390fd5b600560008473ffffffffffffffffffffffffffffffffffffffff1673ffffffffffffffffffffffffffffffffffffffff16815260200190815260200160002060020160019054906101000a900460ff1615612671576040517f08c379a000000000000000000000000000000000000000000000000000000000815260040180806020018281038252601e8152602001807f4169726c696e6520697320616c726561647920726567697374657265642e000081525060200191505060405180910390fd5b612679613345565b6040518060c001604052808573ffffffffffffffffffffffffffffffffffffffff16815260200184848080601f016020809104026020016040519081016040528093929190818152602001838380828437600081840152601f19601f82011690508083019250505050505050815260200160011515815260200160011515815260200160008152602001612328815250905080600360008673ffffffffffffffffffffffffffffffffffffffff1673ffffffffffffffffffffffffffffffffffffffff16815260200190815260200160002060008201518160000160006101000a81548173ffffffffffffffffffffffffffffffffffffffff021916908373ffffffffffffffffffffffffffffffffffffffff16021790555060208201518160010190805190602001906127ae929190613395565b5060408201518160020160006101000a81548160ff02191690831515021790555060608201518160020160016101000a81548160ff0219169083151502179055506080820151816003015560a0820151816004015590505080600560008673ffffffffffffffffffffffffffffffffffffffff1673ffffffffffffffffffffffffffffffffffffffff16815260200190815260200160002060008201518160000160006101000a81548173ffffffffffffffffffffffffffffffffffffffff021916908373ffffffffffffffffffffffffffffffffffffffff16021790555060208201518160010190805190602001906128a9929190613395565b5060408201518160020160006101000a81548160ff02191690831515021790555060608201518160020160016101000a81548160ff0219169083151502179055506080820151816003015560a0820151816004015590505060096000815480929190600101919050555050505050565b600060149054906101000a900460ff1661297e576040517f08c379a00000000000000000000000000000000000000000000000000000000081526004018080602001828103825260258152602001806135366025913960400191505060405180910390fd5b60011515600260003373ffffffffffffffffffffffffffffffffffffffff1673ffffffffffffffffffffffffffffffffffffffff16815260200190815260200160002060009054906101000a900460ff16151514612a44576040517f08c379a000000000000000000000000000000000000000000000000000000000815260040180806020018281038252601d8152602001807f417070436f6e7472616374206973206e6f7420617574686f72697a656400000081525060200191505060405180910390fd5b8160011515600360008373ffffffffffffffffffffffffffffffffffffffff1673ffffffffffffffffffffffffffffffffffffffff16815260200190815260200160002060020160019054906101000a900460ff16151514612b0e576040517f08c379a000000000000000000000000000000000000000000000000000000000815260040180806020018281038252601f8152602001807f4169726c696e65206e65656420746f206265206973526567697374657265640081525060200191505060405180910390fd5b81600360008573ffffffffffffffffffffffffffffffffffffffff1673ffffffffffffffffffffffffffffffffffffffff16815260200190815260200160002060030160008282540192505081905550600360008473ffffffffffffffffffffffffffffffffffffffff1673ffffffffffffffffffffffffffffffffffffffff168152602001908152602001600020600660008573ffffffffffffffffffffffffffffffffffffffff1673ffffffffffffffffffffffffffffffffffffffff1681526020019081526020016000206000820160009054906101000a900473ffffffffffffffffffffffffffffffffffffffff168160000160006101000a81548173ffffffffffffffffffffffffffffffffffffffff021916908373ffffffffffffffffffffffffffffffffffffffff16021790555060018201816001019080546001816001161561010002031660029004612c6a929190613415565b506002820160009054906101000a900460ff168160020160006101000a81548160ff0219169083151502179055506002820160019054906101000a900460ff168160020160016101000a81548160ff0219169083151502179055506003820154816003015560048201548160040155905050600a60008154809291906001019190505550505050565b6000600260008373ffffffffffffffffffffffffffffffffffffffff1673ffffffffffffffffffffffffffffffffffffffff16815260200190815260200160002060009054906101000a900460ff169050919050565b60008060149054906101000a900460ff16612daf576040517f08c379a00000000000000000000000000000000000000000000000000000000081526004018080602001828103825260258152602001806135366025913960400191505060405180910390fd5b60011515600260003373ffffffffffffffffffffffffffffffffffffffff1673ffffffffffffffffffffffffffffffffffffffff16815260200190815260200160002060009054906101000a900460ff16151514612e75576040517f08c379a000000000000000000000000000000000000000000000000000000000815260040180806020018281038252601d8152602001807f417070436f6e7472616374206973206e6f7420617574686f72697a656400000081525060200191505060405180910390fd5b612e7d613345565b600360008473ffffffffffffffffffffffffffffffffffffffff1673ffffffffffffffffffffffffffffffffffffffff1681526020019081526020016000206040518060c00160405290816000820160009054906101000a900473ffffffffffffffffffffffffffffffffffffffff1673ffffffffffffffffffffffffffffffffffffffff1673ffffffffffffffffffffffffffffffffffffffff168152602001600182018054600181600116156101000203166002900480601f016020809104026020016040519081016040528092919081815260200182805460018160011615610100020316600290048015612fb65780601f10612f8b57610100808354040283529160200191612fb6565b820191906000526020600020905b815481529060010190602001808311612f9957829003601f168201915b505050505081526020016002820160009054906101000a900460ff161515151581526020016002820160019054906101000a900460ff161515151581526020016003820154815260200160048201548152505090508060a00151915050919050565b613020613345565b6040518060c001604052808473ffffffffffffffffffffffffffffffffffffffff168152602001838152602001600115158152602001600015158152602001600081526020016000815250905080600360008573ffffffffffffffffffffffffffffffffffffffff1673ffffffffffffffffffffffffffffffffffffffff16815260200190815260200160002060008201518160000160006101000a81548173ffffffffffffffffffffffffffffffffffffffff021916908373ffffffffffffffffffffffffffffffffffffffff1602179055506020820151816001019080519060200190613110929190613395565b5060408201518160020160006101000a81548160ff02191690831515021790555060608201518160020160016101000a81548160ff0219169083151502179055506080820151816003015560a0820151816004015590505080600460008573ffffffffffffffffffffffffffffffffffffffff1673ffffffffffffffffffffffffffffffffffffffff16815260200190815260200160002060008201518160000160006101000a81548173ffffffffffffffffffffffffffffffffffffffff021916908373ffffffffffffffffffffffffffffffffffffffff160217905550602082015181600101908051906020019061320b929190613395565b5060408201518160020160006101000a81548160ff02191690831515021790555060608201518160020160016101000a81548160ff0219169083151502179055506080820151816003015560a08201518160040155905050505050565b6000838383604051602001808473ffffffffffffffffffffffffffffffffffffffff1673ffffffffffffffffffffffffffffffffffffffff1660601b815260140183805190602001908083835b602083106132d857805182526020820191506020810190506020830392506132b5565b6001836020036101000a03801982511681845116808217855250505050505090500182815260200193505050506040516020818303038152906040528051906020012090509392505050565b5080546000825590600052602060002090810190613342919061349c565b50565b6040518060c00160405280600073ffffffffffffffffffffffffffffffffffffffff1681526020016060815260200160001515815260200160001515815260200160008152602001600081525090565b828054600181600116156101000203166002900490600052602060002090601f016020900481019282601f106133d657805160ff1916838001178555613404565b82800160010185558215613404579182015b828111156134035782518255916020019190600101906133e8565b5b509050613411919061349c565b5090565b828054600181600116156101000203166002900490600052602060002090601f016020900481019282601f1061344e578054855561348b565b8280016001018555821561348b57600052602060002091601f016020900482015b8281111561348a57825482559160010191906001019061346f565b5b509050613498919061349c565b5090565b6134be91905b808211156134ba5760008160009055506001016134a2565b5090565b9056fe50617373656e676572732063616e20627579206d6178696d756d203120657468657220696e737572616e63654169726c696e65206e65656420746f2068617665206d6f7265207468616e203130206574686572496e7375726565206e65656420746f2062652067726561746572207468616e2030436f6e74726163742069732063757272656e746c79206e6f74206f7065726174696f6e616c4169726c696e65206973206e6f7420696e20746865206e657741646465644169726c696e657320746f20626520766f746564a265627a7a72315820bebf78b4759bd03e2342d994ae84d6731bf30fcc60460553cc73edf9865f0dcf64736f6c63430005110032",
  "source": "pragma solidity ^0.5.16;\n\nimport \"../node_modules/openzeppelin-solidity/contracts/math/SafeMath.sol\";\n\ncontract FlightSuretyData {\n    using SafeMath for uint256;\n\n    /********************************************************************************************/\n    /*                                       DATA VARIABLES                                     */\n    /********************************************************************************************/\n\n    address private contractOwner;                                      // Account used to deploy contract\n    bool private operational = true;                                    // Blocks all state changes throughout the contract if false\n    address private appContractOwner;\n    mapping(address => bool) public authorizedAppContracts;\n\n    // Airlines\n    struct Airline {\n        address airlineAddress;\n        string airlineID;\n        bool isNewAdded;\n        bool isRegistered;\n        uint256 hasFund;\n        uint256 voteCount;\n    }\n    mapping(address => Airline) private airlines;\n    mapping(address => Airline) private newAddedAirlines;\n    mapping(address => Airline) private registeredAirlines;\n    mapping(address => Airline) private hasFundAirlines; \n    uint256 private airlineCount = 0;\n    uint256 private newAddedAirlineCount = 0;\n    uint256 private registeredAirlineCount = 0;\n    uint256 private hasFundAirlineCount = 0;\n\n    mapping(bytes32 => address[]) private flights;    \n    mapping(address => uint256) private insureesBalance;\n\n    /********************************************************************************************/\n    /*                                       EVENT DEFINITIONS                                  */\n    /********************************************************************************************/\n\n\n    /**\n    * @dev Constructor\n    *      The deploying account becomes contractOwner\n    */\n    constructor\n                                (\n                                address firstAirline, string memory firstAirlineID\n                                ) \n                                public \n    {\n        contractOwner = msg.sender;\n        airlines[firstAirline] = Airline({\n                                    airlineAddress: firstAirline,\n                                    airlineID: firstAirlineID,\n                                    isNewAdded: true,\n                                    isRegistered: true,\n                                    hasFund: 0,\n                                    voteCount: 10000\n                            });\n        airlineCount++;\n        registeredAirlineCount++;\n    }\n\n    /********************************************************************************************/\n    /*                                       FUNCTION MODIFIERS                                 */\n    /********************************************************************************************/\n\n    // Modifiers help avoid duplication of code. They are typically used to validate something\n    // before a function is allowed to be executed.\n\n    /**\n    * @dev Modifier that requires the \"operational\" boolean variable to be \"true\"\n    *      This is used on all state changing functions to pause the contract in \n    *      the event there is an issue that needs to be fixed\n    */\n    modifier requireIsOperational() \n    {\n        require(operational, \"Contract is currently not operational\");\n        _;  // All modifiers require an \"_\" which indicates where the function body will be added\n    }\n\n    /**\n    * @dev Modifier that requires the \"ContractOwner\" account to be the function caller\n    */\n    modifier requireContractOwner()\n    {\n        require(msg.sender == contractOwner, \"Caller is not contract owner\");\n        _;\n    }\n\n    modifier requireAppContractAuthorized()\n    {\n        require(authorizedAppContracts[msg.sender] == true, \"AppContract is not authorized\");\n        _;\n    }\n\n    // modifier requireAppContractOwner()\n    // {\n    //     require(msg.sender == appContractOwner, \"Caller need to be App contract owenr\");\n    //     _;\n    // }\n\n    modifier requireisRegisteredAirline(address _airline)\n    {\n        require(airlines[_airline].isRegistered == true, \"Airline need to be isRegistered\");\n        _;\n    }\n\n    modifier requirehasFundAirline()\n    {\n        require(airlines[msg.sender].hasFund >= (10 ether), \"Airline need to have more than 10 ether\");\n        _;\n    }\n    /********************************************************************************************/\n    /*                                       UTILITY FUNCTIONS                                  */\n    /********************************************************************************************/\n\n    /**\n    * @dev Get operating status of contract\n    *\n    * @return A bool that is the current operating status\n    */      \n    function isOperational() \n                            public \n                            view \n                            returns(bool) \n    {\n        return operational;\n    }\n\n\n    /**\n    * @dev Sets contract operations on/off\n    *\n    * When operational mode is disabled, all write transactions except for this one will fail\n    */    \n    function setOperatingStatus\n                            (\n                                bool mode\n                            ) \n                            external\n                            requireContractOwner \n    {\n        operational = mode;\n    }\n\n    function authorizeAppContract(address _appContract) external requireIsOperational requireContractOwner \n    {\n        authorizedAppContracts[_appContract] = true;\n    }\n    function deauthorizeAppContract(address _appContract) external requireContractOwner \n    {\n        delete authorizedAppContracts[_appContract];\n    }\n\n    /********************************************************************************************/\n    /*                                     SMART CONTRACT FUNCTIONS                             */\n    /********************************************************************************************/\n    function addAirline (address newAirline, string calldata newAirlineID)\n            external payable requireIsOperational requireAppContractAuthorized \n            requirehasFundAirline() {\n        _addAirline(newAirline, newAirlineID);\n    }\n\n    /**\n     * @dev Add an airline to the registration queue\n     *\n     */\n    function _addAirline (address newLine, string memory newLineID) private {\n        Airline memory airline = Airline(newLine, newLineID, true, false, 0, 0);\n        airlines[newLine] = airline;\n        newAddedAirlines[newLine] = airline;\n    }\n\n    function isAppContractAuthorized \n                            (\n                                address _appContract \n                            ) \n                            external \n                            view \n                            returns(bool) \n    {\n        return authorizedAppContracts[_appContract];\n    }\n\n    function isAirlineRegistered\n                            (\n                                address _airline\n                            )\n                            external\n                            view\n                            returns(bool)\n    {\n        return airlines[_airline].isRegistered;\n    }\n\n   /**\n    * @dev Add an airline to the registration queue\n    *      Can only be called from FlightSuretyApp contract\n    *\n    */   \n\n    function registerAirline\n                                (\n                                    address newLine,\n                                    string calldata newLineID\n                                )\n                                external\n                                requireIsOperational requireAppContractAuthorized \n                                requirehasFundAirline()\n    {\n        require(!registeredAirlines[newLine].isRegistered, \"Airline is already registered.\");\n        Airline memory airline = Airline(newLine, newLineID, true, true, 0, 9000);\n        airlines[newLine] = airline;\n        registeredAirlines[newLine] = airline;\n        registeredAirlineCount++;\n        \n    }\n    // function registerAirline\n    //                         ( \n    //                             address airline, address applyAirline  \n    //                         )\n    //                         external requireIsOperational requireAppContractOwner requireisRegisteredAirline(airline)\n    //                         requireFundedAirline(airline)\n    // {\n    //     _registerAirline(applyAirline);\n    // }\n\n    // function _registerAirline(address applyAirline) \n    //         private\n    // {\n    //     airlines[applyAirline].isRegistered = true;\n    // }\n\n    function vote(address newAirline)\n            external requireIsOperational requireAppContractAuthorized\n            requirehasFundAirline()\n    {\n        require(airlines[newAirline].isNewAdded, \"Airline is not in the newAddedAirlines to be voted\");\n        require(!airlines[newAirline].isRegistered, \"Airline is already registered\");\n        // require(!(airlines[newAirline].hasFund > 0),\"Airline is already has funded\");\n        airlines[newAirline].voteCount++;\n    }\n\n\n    // requireisRegisteredAirline\n    function fundAirline(address airline, uint256 value) \n            external requireIsOperational requireAppContractAuthorized requireisRegisteredAirline(airline)\n    {\n        // require(airlines[airline].isRegistered == true, \"airline not registered yet\");\n        airlines[airline].hasFund += value;\n        hasFundAirlines[airline] = airlines[airline];\n        hasFundAirlineCount++;\n    }\n\n   /**\n    * @dev Buy insurance for a flight\n    *\n    */   \n    function buy\n                            (  \n                                address airline, string calldata flight, uint256 timestamp, address insuree                           \n                            )\n                            external\n                            payable requireIsOperational requireAppContractAuthorized\n    {\n        require((insureesBalance[insuree] += msg.value) <= (1 ether), \"Passengers can buy maximum 1 ether insurance\");\n        address(this).transfer(msg.value);\n        bytes32 flightkey = getFlightKey(airline, flight, timestamp);\n        flights[flightkey].push(insuree);\n        insureesBalance[insuree] += (msg.value);\n    }\n\n    /**\n     *  @dev Credits payouts to insurees\n    */\n    function creditInsurees\n                                (\n                                    address airline, string calldata flight, uint256 timestamp\n                                )\n                                external requireIsOperational requireAppContractAuthorized\n    {\n        bytes32 flightkey = getFlightKey(airline, flight, timestamp);\n        for (uint256 i = 0; i < flights[flightkey].length; i++) \n        {\n            uint256 currentBalance = insureesBalance[flights[flightkey][i]];\n\n            uint256 newBalance = currentBalance * 2;\n            insureesBalance[flights[flightkey][i]] = newBalance;\n        }\n        delete flights[flightkey];\n    }\n    \n\n    /**\n     *  @dev Transfers eligible payout funds to insuree\n     *\n    */\n    function pay\n                            (\n                                address payable insuree\n                            )\n                            external payable requireIsOperational requireAppContractAuthorized\n    {\n        require(insureesBalance[insuree] > 0, \"Insuree need to be greater than 0\");\n        uint256 value = insureesBalance[insuree];\n        insureesBalance[insuree] = 0;\n        insuree.transfer(value);\n    }\n\n   /**\n    * @dev Initial funding for the insurance. Unless there are too many delayed flights\n    *      resulting in insurance payouts, the contract should be self-sustaining\n    *\n    */   \n    function dataFund\n                            (   \n                            )\n                            public\n                            payable\n    {\n        address(this).transfer(msg.value);\n    }\n\n    function getFlightKey\n                        (\n                            address airline,\n                            string memory flight,\n                            uint256 timestamp\n                        )\n                        internal\n                        returns(bytes32) \n    {\n        return keccak256(abi.encodePacked(airline, flight, timestamp));\n    }\n\n\n    /**\n     * @dev Returns information about Airline.\n     */\n    function getAirline(address airlineAddress) external view requireIsOperational requireAppContractAuthorized\n                                                returns(string memory id, bool isRegistered, uint hasFund, uint voteCount) {\n        Airline memory airline = airlines[airlineAddress];\n        return(airline.airlineID, airline.isRegistered, airline.hasFund, airline.voteCount);\n    }\n\n    function isAirlineNewAdded(address airline) external view requireIsOperational requireAppContractAuthorized returns (bool) {\n        return airlines[airline].isNewAdded;\n    }\n\n    /**\n     * @dev Returns the number of Airline votes.\n     */\n    function getAirlineVoteCount(address airlineAddress) external view requireIsOperational requireAppContractAuthorized returns(uint256) {\n        Airline memory airline = airlines[airlineAddress];\n        return(airline.voteCount);\n    }\n\n    /**\n     * @dev Returns the number of Airlines.\n     */\n    function getAirlineCount() external view requireIsOperational requireAppContractAuthorized returns(uint256) {\n        return airlineCount;\n    }\n\n    function gethasFundAirlineCount() external view requireIsOperational requireAppContractAuthorized returns(uint256) {\n        return hasFundAirlineCount;\n    }\n    /**\n     * @dev Get insurees credit balance.\n     */\n    function getInsureesBalance(address insuree) external view requireIsOperational returns(uint256) {\n        return insureesBalance[insuree];\n    }\n    /**\n    * @dev Fallback function for funding smart contract.\n    *\n    */\n    function() \n                            external \n                            payable \n    {\n        dataFund();\n    }\n\n\n}\n\n\n\n",
  "sourcePath": "/Users/qiyundong/Qis_learning/flightsurety_workableEnv/contracts/FlightSuretyData.sol",
  "compiler": {
    "name": "solc",
    "version": "0.5.17+commit.d19bba13.Emscripten.clang"
  },
  "schemaVersion": "3.1.0",
  "updatedAt": "2020-05-25T15:51:51.119Z",
  "devdoc": {
    "methods": {
      "buy(address,string,uint256,address)": {
        "details": "Buy insurance for a flight    "
      },
      "constructor": {
        "details": "Constructor     The deploying account becomes contractOwner"
      },
      "creditInsurees(address,string,uint256)": {
        "details": "Credits payouts to insurees"
      },
      "dataFund()": {
        "details": "Initial funding for the insurance. Unless there are too many delayed flights     resulting in insurance payouts, the contract should be self-sustaining    "
      },
      "getAirline(address)": {
        "details": "Returns information about Airline."
      },
      "getAirlineCount()": {
        "details": "Returns the number of Airlines."
      },
      "getAirlineVoteCount(address)": {
        "details": "Returns the number of Airline votes."
      },
      "getInsureesBalance(address)": {
        "details": "Get insurees credit balance."
      },
      "isOperational()": {
        "details": "Get operating status of contract",
        "return": "A bool that is the current operating status"
      },
      "pay(address)": {
        "details": "Transfers eligible payout funds to insuree    "
      },
      "registerAirline(address,string)": {
        "details": "Add an airline to the registration queue     Can only be called from FlightSuretyApp contract    "
      },
      "setOperatingStatus(bool)": {
        "details": "Sets contract operations on/off    * When operational mode is disabled, all write transactions except for this one will fail"
      }
    }
  },
  "userdoc": {
    "methods": {
      "addAirline(address,string)": {
        "notice": "*****************************************************************************************"
      }
    }
  }
}